{"contracts/MainnetConfig.sol":{"MainnetConfig":{"abi":[{"inputs":[],"name":"MAINNET_DEPLOYMENT","outputs":[{"internalType":"bool","name":"","type":"bool"}],"stateMutability":"view","type":"function"},{"inputs":[],"name":"MAINNET_UNISWAP_V2_ROUTER","outputs":[{"internalType":"address","name":"","type":"address"}],"stateMutability":"view","type":"function"},{"inputs":[],"name":"MAINNET_UNISWAP_V3_ROUTER","outputs":[{"internalType":"address","name":"","type":"address"}],"stateMutability":"view","type":"function"},{"inputs":[],"name":"MAINNET_WETH","outputs":[{"internalType":"address","name":"","type":"address"}],"stateMutability":"view","type":"function"},{"inputs":[],"name":"SEPOLIA_UNISWAP_V2_ROUTER","outputs":[{"internalType":"address","name":"","type":"address"}],"stateMutability":"view","type":"function"},{"inputs":[],"name":"SEPOLIA_UNISWAP_V3_ROUTER","outputs":[{"internalType":"address","name":"","type":"address"}],"stateMutability":"view","type":"function"},{"inputs":[],"name":"SEPOLIA_WETH","outputs":[{"internalType":"address","name":"","type":"address"}],"stateMutability":"view","type":"function"},{"inputs":[],"name":"getUniswapV2Router","outputs":[{"internalType":"address","name":"","type":"address"}],"stateMutability":"pure","type":"function"},{"inputs":[],"name":"getUniswapV3Router","outputs":[{"internalType":"address","name":"","type":"address"}],"stateMutability":"pure","type":"function"},{"inputs":[],"name":"getWethAddress","outputs":[{"internalType":"address","name":"","type":"address"}],"stateMutability":"pure","type":"function"},{"inputs":[],"name":"isMainnet","outputs":[{"internalType":"bool","name":"","type":"bool"}],"stateMutability":"pure","type":"function"}],"evm":{"bytecode":{"linkReferences":{},"object":"608060405234801561001057600080fd5b506101d1806100206000396000f3fe608060405234801561001057600080fd5b50600436106100a85760003560e01c80637ff975ff116100715780637ff975ff1461014357806382e57465146100e0578063a87773f41461015e578063b235af0e14610166578063b9e3de4414610181578063f927e767146100fb57600080fd5b806271c175146100ad57806305bf0c40146100e05780630a9f47a3146100fb57806323a7b42a1461011657806342faac0514610130575b600080fd5b737a250d5630b4cf539739df2c5dacb4c659f2488d5b6040516001600160a01b0390911681526020015b60405180910390f35b6100c373e592427a0aece92de3edee1f18e0157c0586156481565b6100c3737a250d5630b4cf539739df2c5dacb4c659f2488d81565b737b79995e5f793a07bc00c21412e50ecae098e7f96100c3565b60005b60405190151581526020016100d7565b6100c373c02aaa39b223fe8d0a0e5c4f27ead9083c756cc281565b610133600081565b6100c3737b79995e5f793a07bc00c21412e50ecae098e7f981565b73e592427a0aece92de3edee1f18e0157c058615646100c356fea26469706673582212202dfc6acc309e132d48526cfd3f27282ad3b60d37a81004707229f9a2b324202e64736f6c63430008140033","opcodes":"PUSH1 0x80 PUSH1 0x40 MSTORE CALLVALUE DUP1 ISZERO PUSH2 0x10 JUMPI PUSH1 0x0 DUP1 REVERT JUMPDEST POP PUSH2 0x1D1 DUP1 PUSH2 0x20 PUSH1 0x0 CODECOPY PUSH1 0x0 RETURN INVALID PUSH1 0x80 PUSH1 0x40 MSTORE CALLVALUE DUP1 ISZERO PUSH2 0x10 JUMPI PUSH1 0x0 DUP1 REVERT JUMPDEST POP PUSH1 0x4 CALLDATASIZE LT PUSH2 0xA8 JUMPI PUSH1 0x0 CALLDATALOAD PUSH1 0xE0 SHR DUP1 PUSH4 0x7FF975FF GT PUSH2 0x71 JUMPI DUP1 PUSH4 0x7FF975FF EQ PUSH2 0x143 JUMPI DUP1 PUSH4 0x82E57465 EQ PUSH2 0xE0 JUMPI DUP1 PUSH4 0xA87773F4 EQ PUSH2 0x15E JUMPI DUP1 PUSH4 0xB235AF0E EQ PUSH2 0x166 JUMPI DUP1 PUSH4 0xB9E3DE44 EQ PUSH2 0x181 JUMPI DUP1 PUSH4 0xF927E767 EQ PUSH2 0xFB JUMPI PUSH1 0x0 DUP1 REVERT JUMPDEST DUP1 PUSH3 0x71C175 EQ PUSH2 0xAD JUMPI DUP1 PUSH4 0x5BF0C40 EQ PUSH2 0xE0 JUMPI DUP1 PUSH4 0xA9F47A3 EQ PUSH2 0xFB JUMPI DUP1 PUSH4 0x23A7B42A EQ PUSH2 0x116 JUMPI DUP1 PUSH4 0x42FAAC05 EQ PUSH2 0x130 JUMPI JUMPDEST PUSH1 0x0 DUP1 REVERT JUMPDEST PUSH20 0x7A250D5630B4CF539739DF2C5DACB4C659F2488D JUMPDEST PUSH1 0x40 MLOAD PUSH1 0x1 PUSH1 0x1 PUSH1 0xA0 SHL SUB SWAP1 SWAP2 AND DUP2 MSTORE PUSH1 0x20 ADD JUMPDEST PUSH1 0x40 MLOAD DUP1 SWAP2 SUB SWAP1 RETURN JUMPDEST PUSH2 0xC3 PUSH20 0xE592427A0AECE92DE3EDEE1F18E0157C05861564 DUP2 JUMP JUMPDEST PUSH2 0xC3 PUSH20 0x7A250D5630B4CF539739DF2C5DACB4C659F2488D DUP2 JUMP JUMPDEST PUSH20 0x7B79995E5F793A07BC00C21412E50ECAE098E7F9 PUSH2 0xC3 JUMP JUMPDEST PUSH1 0x0 JUMPDEST PUSH1 0x40 MLOAD SWAP1 ISZERO ISZERO DUP2 MSTORE PUSH1 0x20 ADD PUSH2 0xD7 JUMP JUMPDEST PUSH2 0xC3 PUSH20 0xC02AAA39B223FE8D0A0E5C4F27EAD9083C756CC2 DUP2 JUMP JUMPDEST PUSH2 0x133 PUSH1 0x0 DUP2 JUMP JUMPDEST PUSH2 0xC3 PUSH20 0x7B79995E5F793A07BC00C21412E50ECAE098E7F9 DUP2 JUMP JUMPDEST PUSH20 0xE592427A0AECE92DE3EDEE1F18E0157C05861564 PUSH2 0xC3 JUMP INVALID LOG2 PUSH5 0x6970667358 0x22 SLT KECCAK256 0x2D 0xFC PUSH11 0xCC309E132D48526CFD3F27 0x28 0x2A 0xD3 0xB6 0xD CALLDATACOPY 0xA8 LT DIV PUSH17 0x7229F9A2B324202E64736F6C6343000814 STOP CALLER "},"methodIdentifiers":{"MAINNET_DEPLOYMENT()":"a87773f4","MAINNET_UNISWAP_V2_ROUTER()":"0a9f47a3","MAINNET_UNISWAP_V3_ROUTER()":"82e57465","MAINNET_WETH()":"7ff975ff","SEPOLIA_UNISWAP_V2_ROUTER()":"f927e767","SEPOLIA_UNISWAP_V3_ROUTER()":"05bf0c40","SEPOLIA_WETH()":"b235af0e","getUniswapV2Router()":"0071c175","getUniswapV3Router()":"b9e3de44","getWethAddress()":"23a7b42a","isMainnet()":"42faac05"}}}}}