{"contracts/NetworkConfig.sol":{"NetworkConfig":{"abi":[{"inputs":[],"name":"SEPOLIA_SUSHISWAP_ROUTER","outputs":[{"internalType":"address","name":"","type":"address"}],"stateMutability":"view","type":"function"},{"inputs":[],"name":"SEPOLIA_UNISWAP_V2_ROUTER","outputs":[{"internalType":"address","name":"","type":"address"}],"stateMutability":"view","type":"function"},{"inputs":[],"name":"SEPOLIA_UNISWAP_V3_ROUTER","outputs":[{"internalType":"address","name":"","type":"address"}],"stateMutability":"view","type":"function"},{"inputs":[],"name":"SEPOLIA_WETH","outputs":[{"internalType":"address","name":"","type":"address"}],"stateMutability":"view","type":"function"}],"evm":{"bytecode":{"linkReferences":{},"object":"608060405234801561001057600080fd5b50610105806100206000396000f3fe6080604052348015600f57600080fd5b506004361060465760003560e01c806305bf0c4014604b578063b235af0e146081578063d8a466c114609b578063f927e7671460b5575b600080fd5b606573e592427a0aece92de3edee1f18e0157c0586156481565b6040516001600160a01b03909116815260200160405180910390f35b6065737b79995e5f793a07bc00c21412e50ecae098e7f981565b606573d9e1ce17f2641f24ae83637ab66a2cca9c378b9f81565b6065737a250d5630b4cf539739df2c5dacb4c659f2488d8156fea26469706673582212206f3b93a689e9e4c5f78c406350416e09d89ad19985d377b85dda87ddd488394464736f6c63430008140033","opcodes":"PUSH1 0x80 PUSH1 0x40 MSTORE CALLVALUE DUP1 ISZERO PUSH2 0x10 JUMPI PUSH1 0x0 DUP1 REVERT JUMPDEST POP PUSH2 0x105 DUP1 PUSH2 0x20 PUSH1 0x0 CODECOPY PUSH1 0x0 RETURN INVALID PUSH1 0x80 PUSH1 0x40 MSTORE CALLVALUE DUP1 ISZERO PUSH1 0xF JUMPI PUSH1 0x0 DUP1 REVERT JUMPDEST POP PUSH1 0x4 CALLDATASIZE LT PUSH1 0x46 JUMPI PUSH1 0x0 CALLDATALOAD PUSH1 0xE0 SHR DUP1 PUSH4 0x5BF0C40 EQ PUSH1 0x4B JUMPI DUP1 PUSH4 0xB235AF0E EQ PUSH1 0x81 JUMPI DUP1 PUSH4 0xD8A466C1 EQ PUSH1 0x9B JUMPI DUP1 PUSH4 0xF927E767 EQ PUSH1 0xB5 JUMPI JUMPDEST PUSH1 0x0 DUP1 REVERT JUMPDEST PUSH1 0x65 PUSH20 0xE592427A0AECE92DE3EDEE1F18E0157C05861564 DUP2 JUMP JUMPDEST PUSH1 0x40 MLOAD PUSH1 0x1 PUSH1 0x1 PUSH1 0xA0 SHL SUB SWAP1 SWAP2 AND DUP2 MSTORE PUSH1 0x20 ADD PUSH1 0x40 MLOAD DUP1 SWAP2 SUB SWAP1 RETURN JUMPDEST PUSH1 0x65 PUSH20 0x7B79995E5F793A07BC00C21412E50ECAE098E7F9 DUP2 JUMP JUMPDEST PUSH1 0x65 PUSH20 0xD9E1CE17F2641F24AE83637AB66A2CCA9C378B9F DUP2 JUMP JUMPDEST PUSH1 0x65 PUSH20 0x7A250D5630B4CF539739DF2C5DACB4C659F2488D DUP2 JUMP INVALID LOG2 PUSH5 0x6970667358 0x22 SLT KECCAK256 PUSH16 0x3B93A689E9E4C5F78C406350416E09D8 SWAP11 0xD1 SWAP10 DUP6 0xD3 PUSH24 0xB85DDA87DDD488394464736F6C6343000814003300000000 "},"methodIdentifiers":{"SEPOLIA_SUSHISWAP_ROUTER()":"d8a466c1","SEPOLIA_UNISWAP_V2_ROUTER()":"f927e767","SEPOLIA_UNISWAP_V3_ROUTER()":"05bf0c40","SEPOLIA_WETH()":"b235af0e"}}}}}