{
  "_format": "hh-sol-artifact-1",
  "contractName": "RealDexIntegration",
  "sourceName": "contracts/RealDexIntegration.sol",
  "abi": [
    {
      "inputs": [
        {
          "internalType": "address",
          "name": "_owner",
          "type": "address"
        }
      ],
      "stateMutability": "nonpayable",
      "type": "constructor"
    },
    {
      "inputs": [
        {
          "internalType": "address",
          "name": "owner",
          "type": "address"
        }
      ],
      "name": "OwnableInvalidOwner",
      "type": "error"
    },
    {
      "inputs": [
        {
          "internalType": "address",
          "name": "account",
          "type": "address"
        }
      ],
      "name": "OwnableUnauthorizedAccount",
      "type": "error"
    },
    {
      "inputs": [],
      "name": "ReentrancyGuardReentrantCall",
      "type": "error"
    },
    {
      "inputs": [
        {
          "internalType": "address",
          "name": "token",
          "type": "address"
        }
      ],
      "name": "SafeERC20FailedOperation",
      "type": "error"
    },
    {
      "anonymous": false,
      "inputs": [
        {
          "indexed": true,
          "internalType": "address",
          "name": "tokenIn",
          "type": "address"
        },
        {
          "indexed": true,
          "internalType": "address",
          "name": "tokenOut",
          "type": "address"
        },
        {
          "indexed": false,
          "internalType": "uint256",
          "name": "amountIn",
          "type": "uint256"
        },
        {
          "indexed": false,
          "internalType": "uint256",
          "name": "amountOut",
          "type": "uint256"
        },
        {
          "indexed": false,
          "internalType": "string",
          "name": "dexName",
          "type": "string"
        },
        {
          "indexed": false,
          "internalType": "uint256",
          "name": "gasEstimate",
          "type": "uint256"
        }
      ],
      "name": "DEXQuoteReceived",
      "type": "event"
    },
    {
      "anonymous": false,
      "inputs": [
        {
          "indexed": true,
          "internalType": "address",
          "name": "previousOwner",
          "type": "address"
        },
        {
          "indexed": true,
          "internalType": "address",
          "name": "newOwner",
          "type": "address"
        }
      ],
      "name": "OwnershipTransferred",
      "type": "event"
    },
    {
      "anonymous": false,
      "inputs": [
        {
          "indexed": true,
          "internalType": "address",
          "name": "tokenIn",
          "type": "address"
        },
        {
          "indexed": true,
          "internalType": "address",
          "name": "tokenOut",
          "type": "address"
        },
        {
          "indexed": false,
          "internalType": "uint256",
          "name": "amountIn",
          "type": "uint256"
        },
        {
          "indexed": false,
          "internalType": "uint256",
          "name": "amountOut",
          "type": "uint256"
        },
        {
          "indexed": false,
          "internalType": "string",
          "name": "dexName",
          "type": "string"
        },
        {
          "indexed": true,
          "internalType": "address",
          "name": "user",
          "type": "address"
        }
      ],
      "name": "SwapExecuted",
      "type": "event"
    },
    {
      "inputs": [
        {
          "internalType": "address",
          "name": "tokenIn",
          "type": "address"
        },
        {
          "internalType": "address",
          "name": "tokenOut",
          "type": "address"
        },
        {
          "internalType": "uint256",
          "name": "amountIn",
          "type": "uint256"
        },
        {
          "internalType": "uint256",
          "name": "minAmountOut",
          "type": "uint256"
        },
        {
          "internalType": "address",
          "name": "recipient",
          "type": "address"
        }
      ],
      "name": "executeUniswapV2Swap",
      "outputs": [
        {
          "internalType": "uint256",
          "name": "amountOut",
          "type": "uint256"
        }
      ],
      "stateMutability": "nonpayable",
      "type": "function"
    },
    {
      "inputs": [
        {
          "internalType": "address",
          "name": "tokenIn",
          "type": "address"
        },
        {
          "internalType": "address",
          "name": "tokenOut",
          "type": "address"
        },
        {
          "internalType": "uint256",
          "name": "amountIn",
          "type": "uint256"
        },
        {
          "internalType": "uint256",
          "name": "minAmountOut",
          "type": "uint256"
        },
        {
          "internalType": "address",
          "name": "recipient",
          "type": "address"
        }
      ],
      "name": "executeUniswapV3Swap",
      "outputs": [
        {
          "internalType": "uint256",
          "name": "amountOut",
          "type": "uint256"
        }
      ],
      "stateMutability": "nonpayable",
      "type": "function"
    },
    {
      "inputs": [
        {
          "internalType": "address",
          "name": "tokenIn",
          "type": "address"
        },
        {
          "internalType": "address",
          "name": "tokenOut",
          "type": "address"
        },
        {
          "internalType": "uint256",
          "name": "amountIn",
          "type": "uint256"
        }
      ],
      "name": "getBestQuote",
      "outputs": [
        {
          "internalType": "string",
          "name": "bestDex",
          "type": "string"
        },
        {
          "internalType": "uint256",
          "name": "bestAmountOut",
          "type": "uint256"
        },
        {
          "internalType": "uint256",
          "name": "gasEstimate",
          "type": "uint256"
        }
      ],
      "stateMutability": "view",
      "type": "function"
    },
    {
      "inputs": [
        {
          "internalType": "address",
          "name": "tokenIn",
          "type": "address"
        },
        {
          "internalType": "address",
          "name": "tokenOut",
          "type": "address"
        },
        {
          "internalType": "uint256",
          "name": "amountIn",
          "type": "uint256"
        }
      ],
      "name": "getUniswapV2Quote",
      "outputs": [
        {
          "internalType": "uint256",
          "name": "amountOut",
          "type": "uint256"
        },
        {
          "internalType": "uint256",
          "name": "gasEstimate",
          "type": "uint256"
        }
      ],
      "stateMutability": "view",
      "type": "function"
    },
    {
      "inputs": [
        {
          "internalType": "address",
          "name": "tokenIn",
          "type": "address"
        },
        {
          "internalType": "address",
          "name": "tokenOut",
          "type": "address"
        },
        {
          "internalType": "uint256",
          "name": "amountIn",
          "type": "uint256"
        }
      ],
      "name": "getUniswapV3Quote",
      "outputs": [
        {
          "internalType": "uint256",
          "name": "amountOut",
          "type": "uint256"
        },
        {
          "internalType": "uint256",
          "name": "gasEstimate",
          "type": "uint256"
        }
      ],
      "stateMutability": "view",
      "type": "function"
    },
    {
      "inputs": [],
      "name": "networkConfig",
      "outputs": [
        {
          "internalType": "address",
          "name": "uniswapV2Router",
          "type": "address"
        },
        {
          "internalType": "address",
          "name": "uniswapV3Router",
          "type": "address"
        },
        {
          "internalType": "address",
          "name": "wethAddress",
          "type": "address"
        },
        {
          "internalType": "bool",
          "name": "isMainnet",
          "type": "bool"
        }
      ],
      "stateMutability": "view",
      "type": "function"
    },
    {
      "inputs": [],
      "name": "owner",
      "outputs": [
        {
          "internalType": "address",
          "name": "",
          "type": "address"
        }
      ],
      "stateMutability": "view",
      "type": "function"
    },
    {
      "inputs": [],
      "name": "renounceOwnership",
      "outputs": [],
      "stateMutability": "nonpayable",
      "type": "function"
    },
    {
      "inputs": [
        {
          "internalType": "address",
          "name": "to",
          "type": "address"
        }
      ],
      "name": "rescueETH",
      "outputs": [],
      "stateMutability": "nonpayable",
      "type": "function"
    },
    {
      "inputs": [
        {
          "internalType": "address",
          "name": "token",
          "type": "address"
        },
        {
          "internalType": "address",
          "name": "to",
          "type": "address"
        },
        {
          "internalType": "uint256",
          "name": "amount",
          "type": "uint256"
        }
      ],
      "name": "rescueTokens",
      "outputs": [],
      "stateMutability": "nonpayable",
      "type": "function"
    },
    {
      "inputs": [
        {
          "internalType": "address",
          "name": "newOwner",
          "type": "address"
        }
      ],
      "name": "transferOwnership",
      "outputs": [],
      "stateMutability": "nonpayable",
      "type": "function"
    },
    {
      "inputs": [
        {
          "internalType": "address",
          "name": "_uniswapV2Router",
          "type": "address"
        },
        {
          "internalType": "address",
          "name": "_uniswapV3Router",
          "type": "address"
        },
        {
          "internalType": "address",
          "name": "_wethAddress",
          "type": "address"
        },
        {
          "internalType": "bool",
          "name": "_isMainnet",
          "type": "bool"
        }
      ],
      "name": "updateNetworkConfig",
      "outputs": [],
      "stateMutability": "nonpayable",
      "type": "function"
    },
    {
      "stateMutability": "payable",
      "type": "receive"
    }
  ],
  "bytecode": "0x60806040523480156200001157600080fd5b5060405162001e2938038062001e2983398101604081905262000034916200067f565b806001600160a01b0381166200006557604051631e4fbdf760e01b8152600060048201526024015b60405180910390fd5b620000708162000621565b5060018055604051600090620000869062000671565b604051809103906000f080158015620000a3573d6000803e3d6000fd5b5090506040518060800160405280826001600160a01b031663a87773f46040518163ffffffff1660e01b8152600401602060405180830381865afa158015620000f0573d6000803e3d6000fd5b505050506040513d601f19601f82011682018060405250810190620001169190620006b1565b6200018657826001600160a01b031663f927e7676040518163ffffffff1660e01b8152600401602060405180830381865afa1580156200015a573d6000803e3d6000fd5b505050506040513d601f19601f820116820180604052508101906200018091906200067f565b620001eb565b826001600160a01b0316630a9f47a36040518163ffffffff1660e01b8152600401602060405180830381865afa158015620001c5573d6000803e3d6000fd5b505050506040513d601f19601f82011682018060405250810190620001eb91906200067f565b6001600160a01b03168152602001826001600160a01b031663a87773f46040518163ffffffff1660e01b8152600401602060405180830381865afa15801562000238573d6000803e3d6000fd5b505050506040513d601f19601f820116820180604052508101906200025e9190620006b1565b620002ce57826001600160a01b03166305bf0c406040518163ffffffff1660e01b8152600401602060405180830381865afa158015620002a2573d6000803e3d6000fd5b505050506040513d601f19601f82011682018060405250810190620002c891906200067f565b62000333565b826001600160a01b03166382e574656040518163ffffffff1660e01b8152600401602060405180830381865afa1580156200030d573d6000803e3d6000fd5b505050506040513d601f19601f820116820180604052508101906200033391906200067f565b6001600160a01b03168152602001826001600160a01b031663a87773f46040518163ffffffff1660e01b8152600401602060405180830381865afa15801562000380573d6000803e3d6000fd5b505050506040513d601f19601f82011682018060405250810190620003a69190620006b1565b6200041657826001600160a01b031663b235af0e6040518163ffffffff1660e01b8152600401602060405180830381865afa158015620003ea573d6000803e3d6000fd5b505050506040513d601f19601f820116820180604052508101906200041091906200067f565b6200047b565b826001600160a01b0316637ff975ff6040518163ffffffff1660e01b8152600401602060405180830381865afa15801562000455573d6000803e3d6000fd5b505050506040513d601f19601f820116820180604052508101906200047b91906200067f565b6001600160a01b03168152602001826001600160a01b031663a87773f46040518163ffffffff1660e01b8152600401602060405180830381865afa158015620004c8573d6000803e3d6000fd5b505050506040513d601f19601f82011682018060405250810190620004ee9190620006b1565b151590528051600280546001600160a01b039283166001600160a01b031991821617909155602080840151600380549185169190931617909155604080840151600480546060909601511515600160a01b026001600160a81b0319909616918516919091179490941784558051632a1ddcfd60e21b815290519285169363a87773f49382820193929091908290030181865afa15801562000593573d6000803e3d6000fd5b505050506040513d601f19601f82011682018060405250810190620005b99190620006b1565b1562000619576002546001600160a01b0316620006195760405162461bcd60e51b815260206004820152601b60248201527f4d61696e6e6574206465706c6f796d656e742073656c6563746564000000000060448201526064016200005c565b5050620006d5565b600080546001600160a01b038381166001600160a01b0319831681178455604051919092169283917f8be0079c531659141344cd1fd0a4f28419497f9722a3daafe3b4186f6b6457e09190a35050565b6101f18062001c3883390190565b6000602082840312156200069257600080fd5b81516001600160a01b0381168114620006aa57600080fd5b9392505050565b600060208284031215620006c457600080fd5b81518015158114620006aa57600080fd5b61155380620006e56000396000f3fe6080604052600436106100ab5760003560e01c8063b6580ead11610064578063b6580ead146101ee578063bb7b0e3d1461021c578063cd960ca81461023c578063cea9d26f1461025c578063f1525bcf1461027c578063f2fde38b1461029c57600080fd5b806304824e70146100b7578063049a1c37146100d9578063228c04b814610113578063715018a6146101425780638da5cb5b1461015757806390ced4211461017f57600080fd5b366100b257005b600080fd5b3480156100c357600080fd5b506100d76100d236600461119c565b6102bc565b005b3480156100e557600080fd5b506100f96100f43660046111be565b6102fd565b604080519283526020830191909152015b60405180910390f35b34801561011f57600080fd5b5061013361012e3660046111be565b610428565b60405161010a939291906111fa565b34801561014e57600080fd5b506100d76105dc565b34801561016357600080fd5b506000546040516001600160a01b03909116815260200161010a565b34801561018b57600080fd5b506002546003546004546101b9926001600160a01b039081169281169190811690600160a01b900460ff1684565b60405161010a94939291906001600160a01b039485168152928416602084015292166040820152901515606082015260800190565b3480156101fa57600080fd5b5061020e610209366004611256565b6105f0565b60405190815260200161010a565b34801561022857600080fd5b506100f96102373660046111be565b610a06565b34801561024857600080fd5b5061020e610257366004611256565b610ae4565b34801561026857600080fd5b506100d76102773660046111be565b610ee9565b34801561028857600080fd5b506100d76102973660046112bb565b610f0a565b3480156102a857600080fd5b506100d76102b736600461119c565b610f8c565b6102c4610fca565b6040516001600160a01b038216904780156108fc02916000818181858888f193505050501580156102f9573d6000803e3d6000fd5b5050565b604080516002808252606082018352600092839283929091602083019080368337019050509050858160008151811061033857610338611327565b60200260200101906001600160a01b031690816001600160a01b031681525050848160018151811061036c5761036c611327565b6001600160a01b03928316602091820292909201015260025460405163d06ca61f60e01b815291169063d06ca61f906103ab9087908590600401611381565b600060405180830381865afa9250505080156103e957506040513d6000823e601f3d908101601f191682016040526103e691908101906113a2565b60015b6103fa57600092506000915061041f565b8060018151811061040d5761040d611327565b60200260200101519350620249f09250505b50935093915050565b60405163049a1c3760e01b81526001600160a01b0384811660048301528316602482015260448101829052606090600090819081908190309063049a1c37906064016040805180830381865afa158015610486573d6000803e3d6000fd5b505050506040513d601f19601f820116820180604052508101906104aa9190611460565b60405163bb7b0e3d60e01b81526001600160a01b03808c1660048301528a1660248201526044810189905291935091506000908190309063bb7b0e3d906064016040805180830381865afa158015610506573d6000803e3d6000fd5b505050506040513d601f19601f8201168201806040525081019061052a9190611460565b9150915081841015801561053e5750600084115b1561057257604051806040016040528060098152602001682ab734b9bbb0b82b1960b91b81525096508395508294506105cf565b81156105a75760405180604001604052806009815260200168556e6973776170563360b81b81525096508195508094506105cf565b604051806040016040528060048152602001634e6f6e6560e01b815250965060009550600094505b5050505093509350939050565b6105e4610fca565b6105ee6000610ff7565b565b60006105fa611047565b6001600160a01b0386161580159061061a57506001600160a01b03851615155b61065c5760405162461bcd60e51b815260206004820152600e60248201526d496e76616c696420746f6b656e7360901b60448201526064015b60405180910390fd5b6000841161069d5760405162461bcd60e51b815260206004820152600e60248201526d125b9d985b1a5908185b5bdd5b9d60921b6044820152606401610653565b6001600160a01b0382166106e75760405162461bcd60e51b8152602060048201526011602482015270125b9d985b1a59081c9958da5c1a595b9d607a1b6044820152606401610653565b6106fc6001600160a01b038716333087611071565b60025460405163095ea7b360e01b81526001600160a01b039182166004820152602481018690529087169063095ea7b3906044016020604051808303816000875af115801561074f573d6000803e3d6000fd5b505050506040513d601f19601f820116820180604052508101906107739190611484565b5060408051600280825260608201835260009260208301908036833701905050905086816000815181106107a9576107a9611327565b60200260200101906001600160a01b031690816001600160a01b03168152505085816001815181106107dd576107dd611327565b6001600160a01b039283166020918202929092010152600254600091166338ed17398787853061080f4261012c6114a1565b6040518663ffffffff1660e01b815260040161082f9594939291906114c8565b6000604051808303816000875af115801561084e573d6000803e3d6000fd5b505050506040513d6000823e601f3d908101601f1916820160405261087691908101906113a2565b90508060018151811061088b5761088b611327565b60200260200101519250848310156108e55760405162461bcd60e51b815260206004820152601a60248201527f496e73756666696369656e74206f757470757420616d6f756e740000000000006044820152606401610653565b6108f96001600160a01b03881685856110de565b60025460405163095ea7b360e01b81526001600160a01b039182166004820152600060248201529089169063095ea7b3906044016020604051808303816000875af115801561094c573d6000803e3d6000fd5b505050506040513d601f19601f820116820180604052508101906109709190611484565b50836001600160a01b0316876001600160a01b0316896001600160a01b03167f786ba1b7fb00631727c074d4540b4709956aed798e67ae42cf25abcedfdc870289876040516109ea9291909182526020820152606060408201819052600990820152682ab734b9bbb0b82b1960b91b608082015260a00190565b60405180910390a450506109fd60018055565b95945050505050565b6003546040805160a0810182526001600160a01b03868116825285811660208301908152610bb88385019081526060840187815260006080860181815296516359d88dbf60e11b8152955185166004870152925184166024860152905162ffffff16604485015251606484015292518116608483015291928392169063b3b11b7e9060a401602060405180830381865afa925050508015610ac4575060408051601f3d908101601f19168201909252610ac191810190611504565b60015b610ad357506000905080610adc565b915062030d4090505b935093915050565b6000610aee611047565b6001600160a01b03861615801590610b0e57506001600160a01b03851615155b610b4b5760405162461bcd60e51b815260206004820152600e60248201526d496e76616c696420746f6b656e7360901b6044820152606401610653565b60008411610b8c5760405162461bcd60e51b815260206004820152600e60248201526d125b9d985b1a5908185b5bdd5b9d60921b6044820152606401610653565b6001600160a01b038216610bd65760405162461bcd60e51b8152602060048201526011602482015270125b9d985b1a59081c9958da5c1a595b9d607a1b6044820152606401610653565b610beb6001600160a01b038716333087611071565b60035460405163095ea7b360e01b81526001600160a01b039182166004820152602481018690529087169063095ea7b3906044016020604051808303816000875af1158015610c3e573d6000803e3d6000fd5b505050506040513d601f19601f82011682018060405250810190610c629190611484565b5060408051610100810182526001600160a01b03808916825287166020820152610bb89181019190915230606082015260009060808101610ca54261012c6114a1565b8152602080820188905260408083018890526000606093840152600354815163414bf38960e01b815285516001600160a01b03908116600483015293860151841660248201529185015162ffffff16604483015292840151821660648201526080840151608482015260a084015160a482015260c084015160c482015260e0840151821660e4820152929350169063414bf38990610104016020604051808303816000875af1158015610d5c573d6000803e3d6000fd5b505050506040513d601f19601f82011682018060405250810190610d809190611504565b915083821015610dd25760405162461bcd60e51b815260206004820152601a60248201527f496e73756666696369656e74206f757470757420616d6f756e740000000000006044820152606401610653565b610de66001600160a01b03871684846110de565b60035460405163095ea7b360e01b81526001600160a01b039182166004820152600060248201529088169063095ea7b3906044016020604051808303816000875af1158015610e39573d6000803e3d6000fd5b505050506040513d601f19601f82011682018060405250810190610e5d9190611484565b50826001600160a01b0316866001600160a01b0316886001600160a01b03167f786ba1b7fb00631727c074d4540b4709956aed798e67ae42cf25abcedfdc87028886604051610ed7929190918252602082015260606040820181905260099082015268556e6973776170563360b81b608082015260a00190565b60405180910390a4506109fd60018055565b610ef1610fca565b610f056001600160a01b03841683836110de565b505050565b610f12610fca565b604080516080810182526001600160a01b0395861680825294861660208201819052939095169085018190529015156060909401849052600280546001600160a01b0319908116909417905560038054909316909117909155600480546001600160a81b031916909117600160a01b909202919091179055565b610f94610fca565b6001600160a01b038116610fbe57604051631e4fbdf760e01b815260006004820152602401610653565b610fc781610ff7565b50565b6000546001600160a01b031633146105ee5760405163118cdaa760e01b8152336004820152602401610653565b600080546001600160a01b038381166001600160a01b0319831681178455604051919092169283917f8be0079c531659141344cd1fd0a4f28419497f9722a3daafe3b4186f6b6457e09190a35050565b60026001540361106a57604051633ee5aeb560e01b815260040160405180910390fd5b6002600155565b6040516001600160a01b0384811660248301528381166044830152606482018390526110d89186918216906323b872dd906084015b604051602081830303815290604052915060e01b6020820180516001600160e01b03838183161783525050505061110f565b50505050565b6040516001600160a01b03838116602483015260448201839052610f0591859182169063a9059cbb906064016110a6565b600080602060008451602086016000885af180611132576040513d6000823e3d81fd5b50506000513d9150811561114a578060011415611157565b6001600160a01b0384163b155b156110d857604051635274afe760e01b81526001600160a01b0385166004820152602401610653565b80356001600160a01b038116811461119757600080fd5b919050565b6000602082840312156111ae57600080fd5b6111b782611180565b9392505050565b6000806000606084860312156111d357600080fd5b6111dc84611180565b92506111ea60208501611180565b9150604084013590509250925092565b606081526000845180606084015260005b81811015611228576020818801810151608086840101520161120b565b506000608082850101526080601f19601f830116840101915050836020830152826040830152949350505050565b600080600080600060a0868803121561126e57600080fd5b61127786611180565b945061128560208701611180565b935060408601359250606086013591506112a160808701611180565b90509295509295909350565b8015158114610fc757600080fd5b600080600080608085870312156112d157600080fd5b6112da85611180565b93506112e860208601611180565b92506112f660408601611180565b91506060850135611306816112ad565b939692955090935050565b634e487b7160e01b600052604160045260246000fd5b634e487b7160e01b600052603260045260246000fd5b600081518084526020808501945080840160005b838110156113765781516001600160a01b031687529582019590820190600101611351565b509495945050505050565b82815260406020820152600061139a604083018461133d565b949350505050565b600060208083850312156113b557600080fd5b825167ffffffffffffffff808211156113cd57600080fd5b818501915085601f8301126113e157600080fd5b8151818111156113f3576113f3611311565b8060051b604051601f19603f8301168101818110858211171561141857611418611311565b60405291825284820192508381018501918883111561143657600080fd5b938501935b828510156114545784518452938501939285019261143b565b98975050505050505050565b6000806040838503121561147357600080fd5b505080516020909101519092909150565b60006020828403121561149657600080fd5b81516111b7816112ad565b808201808211156114c257634e487b7160e01b600052601160045260246000fd5b92915050565b85815284602082015260a0604082015260006114e760a083018661133d565b6001600160a01b0394909416606083015250608001529392505050565b60006020828403121561151657600080fd5b505191905056fea264697066735822122010eba279c8a73f7e2ebb6a61f55d8bf536f70a7a5aeab97f124c68ec51c853be64736f6c63430008140033608060405234801561001057600080fd5b506101d1806100206000396000f3fe608060405234801561001057600080fd5b50600436106100a85760003560e01c80637ff975ff116100715780637ff975ff1461014357806382e57465146100e0578063a87773f41461015e578063b235af0e14610166578063b9e3de4414610181578063f927e767146100fb57600080fd5b806271c175146100ad57806305bf0c40146100e05780630a9f47a3146100fb57806323a7b42a1461011657806342faac0514610130575b600080fd5b737a250d5630b4cf539739df2c5dacb4c659f2488d5b6040516001600160a01b0390911681526020015b60405180910390f35b6100c373e592427a0aece92de3edee1f18e0157c0586156481565b6100c3737a250d5630b4cf539739df2c5dacb4c659f2488d81565b737b79995e5f793a07bc00c21412e50ecae098e7f96100c3565b60005b60405190151581526020016100d7565b6100c373c02aaa39b223fe8d0a0e5c4f27ead9083c756cc281565b610133600081565b6100c3737b79995e5f793a07bc00c21412e50ecae098e7f981565b73e592427a0aece92de3edee1f18e0157c058615646100c356fea26469706673582212202dfc6acc309e132d48526cfd3f27282ad3b60d37a81004707229f9a2b324202e64736f6c63430008140033",
  "linkReferences": {},
  "deployedLinkReferences": {}
}